{
  "contractName": "GabulNft",
  "abi": [
    {
      "inputs": [],
      "stateMutability": "nonpayable",
      "type": "constructor"
    },
    {
      "inputs": [
        {
          "internalType": "uint256",
          "name": "",
          "type": "uint256"
        }
      ],
      "name": "nfts",
      "outputs": [
        {
          "internalType": "uint256",
          "name": "price",
          "type": "uint256"
        },
        {
          "internalType": "address",
          "name": "owner",
          "type": "address"
        }
      ],
      "stateMutability": "view",
      "type": "function",
      "constant": true
    },
    {
      "inputs": [],
      "name": "owner",
      "outputs": [
        {
          "internalType": "address",
          "name": "",
          "type": "address"
        }
      ],
      "stateMutability": "view",
      "type": "function",
      "constant": true
    },
    {
      "inputs": [
        {
          "internalType": "uint256",
          "name": "_index",
          "type": "uint256"
        }
      ],
      "name": "buy",
      "outputs": [],
      "stateMutability": "payable",
      "type": "function",
      "payable": true
    },
    {
      "inputs": [],
      "name": "getTotalNfts",
      "outputs": [
        {
          "internalType": "uint256",
          "name": "",
          "type": "uint256"
        }
      ],
      "stateMutability": "view",
      "type": "function",
      "constant": true
    },
    {
      "inputs": [
        {
          "internalType": "uint256",
          "name": "_index",
          "type": "uint256"
        }
      ],
      "name": "getNftOwnerByIndex",
      "outputs": [
        {
          "internalType": "address",
          "name": "",
          "type": "address"
        }
      ],
      "stateMutability": "view",
      "type": "function",
      "constant": true
    },
    {
      "inputs": [
        {
          "internalType": "address",
          "name": "_address",
          "type": "address"
        }
      ],
      "name": "getTotalNftQuantityByOwner",
      "outputs": [
        {
          "internalType": "uint256",
          "name": "",
          "type": "uint256"
        }
      ],
      "stateMutability": "view",
      "type": "function",
      "constant": true
    },
    {
      "inputs": [
        {
          "internalType": "uint256",
          "name": "_index",
          "type": "uint256"
        }
      ],
      "name": "getNftById",
      "outputs": [
        {
          "internalType": "uint256",
          "name": "",
          "type": "uint256"
        },
        {
          "internalType": "address",
          "name": "",
          "type": "address"
        }
      ],
      "stateMutability": "view",
      "type": "function",
      "constant": true
    },
    {
      "inputs": [],
      "name": "getNfts",
      "outputs": [
        {
          "components": [
            {
              "internalType": "uint256",
              "name": "price",
              "type": "uint256"
            },
            {
              "internalType": "address",
              "name": "owner",
              "type": "address"
            }
          ],
          "internalType": "struct GabulNft.NFT[]",
          "name": "",
          "type": "tuple[]"
        }
      ],
      "stateMutability": "view",
      "type": "function",
      "constant": true
    }
  ],
  "bytecode": "0x6080604052336000806101000a81548173ffffffffffffffffffffffffffffffffffffffff021916908373ffffffffffffffffffffffffffffffffffffffff16021790555034801561005057600080fd5b5060005b600a8110156100f35767016345785d8a0000600182600a811061007a576100796100f9565b5b60020201600001819055506000600182600a811061009b5761009a6100f9565b5b6002020160010160006101000a81548173ffffffffffffffffffffffffffffffffffffffff021916908373ffffffffffffffffffffffffffffffffffffffff16021790555080806100eb90610161565b915050610054565b506101a9565b7f4e487b7100000000000000000000000000000000000000000000000000000000600052603260045260246000fd5b7f4e487b7100000000000000000000000000000000000000000000000000000000600052601160045260246000fd5b6000819050919050565b600061016c82610157565b91507fffffffffffffffffffffffffffffffffffffffffffffffffffffffffffffffff820361019e5761019d610128565b5b600182019050919050565b6109e5806101b86000396000f3fe60806040526004361061007b5760003560e01c8063b0a874371161004e578063b0a8743714610152578063c3f64b731461018f578063d8cb55e3146101cc578063d96a094a146101f75761007b565b8063265aa621146100805780638da5cb5b146100be57806395a81b8f146100e95780639ffd36b014610127575b600080fd5b34801561008c57600080fd5b506100a760048036038101906100a29190610687565b610213565b6040516100b5929190610704565b60405180910390f35b3480156100ca57600080fd5b506100d361025d565b6040516100e0919061072d565b60405180910390f35b3480156100f557600080fd5b50610110600480360381019061010b9190610687565b610281565b60405161011e929190610704565b60405180910390f35b34801561013357600080fd5b5061013c6102e5565b6040516101499190610748565b60405180910390f35b34801561015e57600080fd5b506101796004803603810190610174919061078f565b6102ee565b6040516101869190610748565b60405180910390f35b34801561019b57600080fd5b506101b660048036038101906101b19190610687565b61039b565b6040516101c3919061072d565b60405180910390f35b3480156101d857600080fd5b506101e16103e0565b6040516101ee91906108b8565b60405180910390f35b610211600480360381019061020c9190610687565b610509565b005b600181600a811061022357600080fd5b600202016000915090508060000154908060010160009054906101000a900473ffffffffffffffffffffffffffffffffffffffff16905082565b60008054906101000a900473ffffffffffffffffffffffffffffffffffffffff1681565b600080600183600a8110610298576102976108da565b5b6002020160000154600184600a81106102b4576102b36108da565b5b6002020160010160009054906101000a900473ffffffffffffffffffffffffffffffffffffffff1691509150915091565b6000600a905090565b6000806000905060005b600a811015610391578373ffffffffffffffffffffffffffffffffffffffff16600182600a811061032c5761032b6108da565b5b6002020160010160009054906101000a900473ffffffffffffffffffffffffffffffffffffffff1673ffffffffffffffffffffffffffffffffffffffff160361037e57818061037a90610938565b9250505b808061038990610938565b9150506102f8565b5080915050919050565b6000600182600a81106103b1576103b06108da565b5b6002020160010160009054906101000a900473ffffffffffffffffffffffffffffffffffffffff169050919050565b60606000600a67ffffffffffffffff8111156103ff576103fe610980565b5b60405190808252806020026020018201604052801561043857816020015b61042561061c565b81526020019060019003908161041d5790505b50905060005b600a811015610501576000600182600a811061045d5761045c6108da565b5b60020201905080604051806040016040529081600082015481526020016001820160009054906101000a900473ffffffffffffffffffffffffffffffffffffffff1673ffffffffffffffffffffffffffffffffffffffff1673ffffffffffffffffffffffffffffffffffffffff16815250508383815181106104e2576104e16108da565b5b60200260200101819052505080806104f990610938565b91505061043e565b508091505090565b600a8110801561051a575060008110155b61052357600080fd5b600073ffffffffffffffffffffffffffffffffffffffff16600182600a811061054f5761054e6108da565b5b6002020160010160009054906101000a900473ffffffffffffffffffffffffffffffffffffffff1673ffffffffffffffffffffffffffffffffffffffff161461059757600080fd5b600181600a81106105ab576105aa6108da565b5b60020201600001543410156105bf57600080fd5b33600182600a81106105d4576105d36108da565b5b6002020160010160006101000a81548173ffffffffffffffffffffffffffffffffffffffff021916908373ffffffffffffffffffffffffffffffffffffffff16021790555050565b604051806040016040528060008152602001600073ffffffffffffffffffffffffffffffffffffffff1681525090565b600080fd5b6000819050919050565b61066481610651565b811461066f57600080fd5b50565b6000813590506106818161065b565b92915050565b60006020828403121561069d5761069c61064c565b5b60006106ab84828501610672565b91505092915050565b6106bd81610651565b82525050565b600073ffffffffffffffffffffffffffffffffffffffff82169050919050565b60006106ee826106c3565b9050919050565b6106fe816106e3565b82525050565b600060408201905061071960008301856106b4565b61072660208301846106f5565b9392505050565b600060208201905061074260008301846106f5565b92915050565b600060208201905061075d60008301846106b4565b92915050565b61076c816106e3565b811461077757600080fd5b50565b60008135905061078981610763565b92915050565b6000602082840312156107a5576107a461064c565b5b60006107b38482850161077a565b91505092915050565b600081519050919050565b600082825260208201905092915050565b6000819050602082019050919050565b6107f181610651565b82525050565b610800816106e3565b82525050565b60408201600082015161081c60008501826107e8565b50602082015161082f60208501826107f7565b50505050565b60006108418383610806565b60408301905092915050565b6000602082019050919050565b6000610865826107bc565b61086f81856107c7565b935061087a836107d8565b8060005b838110156108ab5781516108928882610835565b975061089d8361084d565b92505060018101905061087e565b5085935050505092915050565b600060208201905081810360008301526108d2818461085a565b905092915050565b7f4e487b7100000000000000000000000000000000000000000000000000000000600052603260045260246000fd5b7f4e487b7100000000000000000000000000000000000000000000000000000000600052601160045260246000fd5b600061094382610651565b91507fffffffffffffffffffffffffffffffffffffffffffffffffffffffffffffffff820361097557610974610909565b5b600182019050919050565b7f4e487b7100000000000000000000000000000000000000000000000000000000600052604160045260246000fdfea2646970667358221220d5d23fd9996ddbe5b7ebc9e999b91cd1c1e87976e1e985bcb2ffe7ab465ffcc264736f6c634300080d0033",
  "immutableReferences": {},
  "source": "// SPDX-License-Identifier: MIT\npragma solidity >=0.4.22 <0.9.0;\n\nuint256 constant TOTAL_NFTS = 10;\n\ncontract GabulNft {\n    address public owner = msg.sender;\n\n    struct NFT {\n        uint256 price;\n        address owner;\n    }\n\n    NFT[TOTAL_NFTS] public nfts;\n\n    constructor() {\n        for (uint256 i = 0; i < 10; i++) {\n            nfts[i].price = 1e17; // 0.1 ETH\n            nfts[i].owner = address(0x0);\n        }\n    }\n\n    function buy(uint256 _index) external payable {\n        require(_index < TOTAL_NFTS && _index >= 0);\n        require(nfts[_index].owner == address(0x0));\n        require(msg.value >= nfts[_index].price);\n        nfts[_index].owner = msg.sender;\n    }\n\n    function getTotalNfts() external view returns (uint256) {\n        return nfts.length;\n    }\n\n    function getNftOwnerByIndex(uint256 _index)\n        external\n        view\n        returns (address)\n    {\n        return nfts[_index].owner;\n    }\n\n    function getTotalNftQuantityByOwner(address _address)\n        external\n        view\n        returns (uint256)\n    {\n        uint256 total = 0;\n        for (uint256 i = 0; i < nfts.length; i++) {\n            if (nfts[i].owner == _address) {\n                total++;\n            }\n        }\n        return total;\n    }\n\n    function getNftById(uint256 _index)\n        external\n        view\n        returns (uint256, address)\n    {\n        return (nfts[_index].price, nfts[_index].owner);\n    }\n\n    function getNfts() external view returns (NFT[] memory) {\n        NFT[] memory _nft = new NFT[](nfts.length);\n        for (uint256 i = 0; i < nfts.length; i++) {\n            NFT storage _nftUnique = nfts[i];\n            _nft[i] = _nftUnique;\n        }\n\n        return _nft;\n    }\n\n    //     function getBid() public view returns (Bid[] memory){\n    //     Bid[] memory lBids = new Bid[](tripcount);\n    //     for (uint i = 0; i < bidCount; i++) {\n    //         Bid storage lBid = bids[i];\n    //         lBids[i] = lBid;\n    //     }\n    //     return lBids;\n    // }\n}\n",
  "sourcePath": "/home/ghost/Projetos/Blockchain/Flutter/solidity_nft_marketplace/contracts/GabulNft.sol",
  "compiler": {
    "name": "solc",
    "version": "0.8.13+commit.abaa5c0e.Emscripten.clang"
  },
  "schemaVersion": "3.4.6",
  "updatedAt": "2022-04-07T20:06:23.111Z",
  "networkType": "ethereum",
  "devdoc": {
    "kind": "dev",
    "methods": {},
    "version": 1
  },
  "userdoc": {
    "kind": "user",
    "methods": {},
    "version": 1
  }
}