{
  "contractName": "Tickets",
  "abi": [
    {
      "anonymous": false,
      "inputs": [
        {
          "indexed": true,
          "internalType": "uint256",
          "name": "index",
          "type": "uint256"
        },
        {
          "components": [
            {
              "internalType": "uint256",
              "name": "price",
              "type": "uint256"
            },
            {
              "internalType": "address",
              "name": "owner",
              "type": "address"
            }
          ],
          "indexed": false,
          "internalType": "struct Tickets.Ticket",
          "name": "ticket",
          "type": "tuple"
        }
      ],
      "name": "Created",
      "type": "event"
    },
    {
      "inputs": [],
      "name": "owner",
      "outputs": [
        {
          "internalType": "address",
          "name": "",
          "type": "address"
        }
      ],
      "stateMutability": "view",
      "type": "function",
      "constant": true
    },
    {
      "inputs": [
        {
          "internalType": "uint256",
          "name": "",
          "type": "uint256"
        }
      ],
      "name": "tickets",
      "outputs": [
        {
          "internalType": "uint256",
          "name": "price",
          "type": "uint256"
        },
        {
          "internalType": "address",
          "name": "owner",
          "type": "address"
        }
      ],
      "stateMutability": "view",
      "type": "function",
      "constant": true
    },
    {
      "inputs": [],
      "name": "mint",
      "outputs": [],
      "stateMutability": "payable",
      "type": "function",
      "payable": true
    },
    {
      "inputs": [
        {
          "internalType": "uint256",
          "name": "_index",
          "type": "uint256"
        }
      ],
      "name": "buyTickets",
      "outputs": [],
      "stateMutability": "payable",
      "type": "function",
      "payable": true
    },
    {
      "inputs": [],
      "name": "getNumberTickets",
      "outputs": [
        {
          "internalType": "uint256",
          "name": "",
          "type": "uint256"
        }
      ],
      "stateMutability": "view",
      "type": "function",
      "constant": true
    },
    {
      "inputs": [],
      "name": "getTickets",
      "outputs": [
        {
          "internalType": "uint256",
          "name": "",
          "type": "uint256"
        },
        {
          "internalType": "address",
          "name": "",
          "type": "address"
        }
      ],
      "stateMutability": "view",
      "type": "function",
      "constant": true
    }
  ],
  "bytecode": "0x6080604052336000806101000a81548173ffffffffffffffffffffffffffffffffffffffff021916908373ffffffffffffffffffffffffffffffffffffffff16021790555034801561005057600080fd5b5061076e806100606000396000f3fe6080604052600436106100555760003560e01c80631249c58b1461005a5780632a7c586e146100645780632f3666371461008f5780634ed02622146100ab57806350b44712146100d75780638da5cb5b14610115575b600080fd5b610062610140565b005b34801561007057600080fd5b50610079610275565b60405161008691906104bd565b60405180910390f35b6100a960048036038101906100a49190610509565b610282565b005b3480156100b757600080fd5b506100c06103b3565b6040516100ce929190610577565b60405180910390f35b3480156100e357600080fd5b506100fe60048036038101906100f99190610509565b61042c565b60405161010c929190610577565b60405180910390f35b34801561012157600080fd5b5061012a610480565b60405161013791906105a0565b60405180910390f35b67016345785d8a000034101561015557600080fd5b6001604051806040016040528067016345785d8a000081526020013373ffffffffffffffffffffffffffffffffffffffff1681525090806001815401808255809150506001900390600052602060002090600202016000909190919091506000820151816000015560208201518160010160006101000a81548173ffffffffffffffffffffffffffffffffffffffff021916908373ffffffffffffffffffffffffffffffffffffffff16021790555050506001805490507f5af929612ecea6f9ee3de9590497a5d7543f829a06a4a45f0b22eed5b769f96b600180808054905061023f91906105ea565b815481106102505761024f61061e565b5b906000526020600020906002020160405161026b919061071d565b60405180910390a2565b6000600180549050905090565b600a81108015610293575060008110155b61029c57600080fd5b600073ffffffffffffffffffffffffffffffffffffffff16600182815481106102c8576102c761061e565b5b906000526020600020906002020160010160009054906101000a900473ffffffffffffffffffffffffffffffffffffffff1673ffffffffffffffffffffffffffffffffffffffff161461031a57600080fd5b6001818154811061032e5761032d61061e565b5b90600052602060002090600202016000015434101561034c57600080fd5b33600182815481106103615761036061061e565b5b906000526020600020906002020160010160006101000a81548173ffffffffffffffffffffffffffffffffffffffff021916908373ffffffffffffffffffffffffffffffffffffffff16021790555050565b60008060016000815481106103cb576103ca61061e565b5b90600052602060002090600202016000015460016000815481106103f2576103f161061e565b5b906000526020600020906002020160010160009054906101000a900473ffffffffffffffffffffffffffffffffffffffff16915091509091565b6001818154811061043c57600080fd5b90600052602060002090600202016000915090508060000154908060010160009054906101000a900473ffffffffffffffffffffffffffffffffffffffff16905082565b60008054906101000a900473ffffffffffffffffffffffffffffffffffffffff1681565b6000819050919050565b6104b7816104a4565b82525050565b60006020820190506104d260008301846104ae565b92915050565b600080fd5b6104e6816104a4565b81146104f157600080fd5b50565b600081359050610503816104dd565b92915050565b60006020828403121561051f5761051e6104d8565b5b600061052d848285016104f4565b91505092915050565b600073ffffffffffffffffffffffffffffffffffffffff82169050919050565b600061056182610536565b9050919050565b61057181610556565b82525050565b600060408201905061058c60008301856104ae565b6105996020830184610568565b9392505050565b60006020820190506105b56000830184610568565b92915050565b7f4e487b7100000000000000000000000000000000000000000000000000000000600052601160045260246000fd5b60006105f5826104a4565b9150610600836104a4565b925082821015610613576106126105bb565b5b828203905092915050565b7f4e487b7100000000000000000000000000000000000000000000000000000000600052603260045260246000fd5b60008160001c9050919050565b6000819050919050565b60006106776106728361064d565b61065a565b9050919050565b610687816104a4565b82525050565b600073ffffffffffffffffffffffffffffffffffffffff82169050919050565b60006106c06106bb8361064d565b61068d565b9050919050565b6106d081610556565b82525050565b6040820160008083015490506106eb81610664565b6106f8600086018261067e565b5060018301549050610709816106ad565b61071660208601826106c7565b5050505050565b600060408201905061073260008301846106d6565b9291505056fea264697066735822122051484e43cee6f0eb59e5b00c4e244862d30cdfeefd3f32ac2589542e41c326ef64736f6c634300080d0033",
  "immutableReferences": {},
  "source": "// SPDX-License-Identifier: MIT\npragma solidity >=0.4.22 <0.9.0;\n\n// Total supply of tickets\nuint256 constant TOTAL_TICKETS = 10;\n\ncontract Tickets {\n    address public owner = msg.sender;\n\n    event Created(uint256 indexed index, Ticket ticket);\n\n    struct Ticket {\n        uint256 price;\n        address owner;\n    }\n\n    Ticket[] public tickets;\n\n    // constructor() {\n    //     for (uint256 i = 0; i < TOTAL_TICKETS; i++) {\n    //         tickets[i].price = 1e17; // 0.1 ETH\n    //         tickets[i].owner = address(0x0);\n    //         emit Created(i, tickets[i]);\n    //     }\n    // }\n\n    function mint() external payable {\n        require(msg.value >= 1e17);\n        tickets.push(Ticket(1e17, msg.sender));\n        emit Created(tickets.length, tickets[tickets.length - 1]);\n    }\n\n    function buyTickets(uint256 _index) external payable {\n        require(_index < TOTAL_TICKETS && _index >= 0);\n        require(tickets[_index].owner == address(0x0));\n        require(msg.value >= tickets[_index].price);\n        tickets[_index].owner = msg.sender;\n    }\n\n    function getNumberTickets() public view returns (uint256) {\n        return tickets.length;\n    }\n\n    function getTickets() public view returns (uint256, address) {\n        return (tickets[0].price, tickets[0].owner);\n    }\n}\n",
  "sourcePath": "/home/ghost/Projetos/Blockchain/Flutter/solidity_nft_marketplace/contracts/Tickets.sol",
  "compiler": {
    "name": "solc",
    "version": "0.8.13+commit.abaa5c0e.Emscripten.clang"
  },
  "schemaVersion": "3.4.6",
  "updatedAt": "2022-04-07T20:06:22.783Z",
  "networkType": "ethereum",
  "devdoc": {
    "kind": "dev",
    "methods": {},
    "version": 1
  },
  "userdoc": {
    "kind": "user",
    "methods": {},
    "version": 1
  }
}